{
  "_format": "hh-sol-artifact-1",
  "contractName": "WIP",
  "sourceName": "contracts/WIP.sol",
  "abi": [
    {
      "inputs": [],
      "stateMutability": "nonpayable",
      "type": "constructor"
    },
    {
      "inputs": [
        {
          "internalType": "address",
          "name": "spender",
          "type": "address"
        },
        {
          "internalType": "uint256",
          "name": "allowance",
          "type": "uint256"
        },
        {
          "internalType": "uint256",
          "name": "needed",
          "type": "uint256"
        }
      ],
      "name": "ERC20InsufficientAllowance",
      "type": "error"
    },
    {
      "inputs": [
        {
          "internalType": "address",
          "name": "sender",
          "type": "address"
        },
        {
          "internalType": "uint256",
          "name": "balance",
          "type": "uint256"
        },
        {
          "internalType": "uint256",
          "name": "needed",
          "type": "uint256"
        }
      ],
      "name": "ERC20InsufficientBalance",
      "type": "error"
    },
    {
      "inputs": [
        {
          "internalType": "address",
          "name": "approver",
          "type": "address"
        }
      ],
      "name": "ERC20InvalidApprover",
      "type": "error"
    },
    {
      "inputs": [
        {
          "internalType": "address",
          "name": "receiver",
          "type": "address"
        }
      ],
      "name": "ERC20InvalidReceiver",
      "type": "error"
    },
    {
      "inputs": [
        {
          "internalType": "address",
          "name": "sender",
          "type": "address"
        }
      ],
      "name": "ERC20InvalidSender",
      "type": "error"
    },
    {
      "inputs": [
        {
          "internalType": "address",
          "name": "spender",
          "type": "address"
        }
      ],
      "name": "ERC20InvalidSpender",
      "type": "error"
    },
    {
      "inputs": [
        {
          "internalType": "address",
          "name": "owner",
          "type": "address"
        }
      ],
      "name": "OwnableInvalidOwner",
      "type": "error"
    },
    {
      "inputs": [
        {
          "internalType": "address",
          "name": "account",
          "type": "address"
        }
      ],
      "name": "OwnableUnauthorizedAccount",
      "type": "error"
    },
    {
      "anonymous": false,
      "inputs": [
        {
          "indexed": true,
          "internalType": "address",
          "name": "owner",
          "type": "address"
        },
        {
          "indexed": true,
          "internalType": "address",
          "name": "spender",
          "type": "address"
        },
        {
          "indexed": false,
          "internalType": "uint256",
          "name": "value",
          "type": "uint256"
        }
      ],
      "name": "Approval",
      "type": "event"
    },
    {
      "anonymous": false,
      "inputs": [
        {
          "indexed": true,
          "internalType": "address",
          "name": "previousOwner",
          "type": "address"
        },
        {
          "indexed": true,
          "internalType": "address",
          "name": "newOwner",
          "type": "address"
        }
      ],
      "name": "OwnershipTransferred",
      "type": "event"
    },
    {
      "anonymous": false,
      "inputs": [
        {
          "indexed": true,
          "internalType": "address",
          "name": "from",
          "type": "address"
        },
        {
          "indexed": true,
          "internalType": "address",
          "name": "to",
          "type": "address"
        },
        {
          "indexed": false,
          "internalType": "uint256",
          "name": "value",
          "type": "uint256"
        }
      ],
      "name": "Transfer",
      "type": "event"
    },
    {
      "inputs": [
        {
          "internalType": "address",
          "name": "owner",
          "type": "address"
        },
        {
          "internalType": "address",
          "name": "spender",
          "type": "address"
        }
      ],
      "name": "allowance",
      "outputs": [
        {
          "internalType": "uint256",
          "name": "",
          "type": "uint256"
        }
      ],
      "stateMutability": "view",
      "type": "function"
    },
    {
      "inputs": [
        {
          "internalType": "address",
          "name": "spender",
          "type": "address"
        },
        {
          "internalType": "uint256",
          "name": "value",
          "type": "uint256"
        }
      ],
      "name": "approve",
      "outputs": [
        {
          "internalType": "bool",
          "name": "",
          "type": "bool"
        }
      ],
      "stateMutability": "nonpayable",
      "type": "function"
    },
    {
      "inputs": [
        {
          "internalType": "address",
          "name": "account",
          "type": "address"
        }
      ],
      "name": "balanceOf",
      "outputs": [
        {
          "internalType": "uint256",
          "name": "",
          "type": "uint256"
        }
      ],
      "stateMutability": "view",
      "type": "function"
    },
    {
      "inputs": [
        {
          "internalType": "address",
          "name": "account",
          "type": "address"
        }
      ],
      "name": "canComment",
      "outputs": [
        {
          "internalType": "bool",
          "name": "",
          "type": "bool"
        }
      ],
      "stateMutability": "view",
      "type": "function"
    },
    {
      "inputs": [
        {
          "internalType": "address",
          "name": "account",
          "type": "address"
        }
      ],
      "name": "canPost",
      "outputs": [
        {
          "internalType": "bool",
          "name": "",
          "type": "bool"
        }
      ],
      "stateMutability": "view",
      "type": "function"
    },
    {
      "inputs": [],
      "name": "commentThreshold",
      "outputs": [
        {
          "internalType": "uint256",
          "name": "",
          "type": "uint256"
        }
      ],
      "stateMutability": "view",
      "type": "function"
    },
    {
      "inputs": [],
      "name": "decimals",
      "outputs": [
        {
          "internalType": "uint8",
          "name": "",
          "type": "uint8"
        }
      ],
      "stateMutability": "view",
      "type": "function"
    },
    {
      "inputs": [
        {
          "internalType": "address",
          "name": "to",
          "type": "address"
        },
        {
          "internalType": "uint256",
          "name": "amount",
          "type": "uint256"
        }
      ],
      "name": "mint",
      "outputs": [],
      "stateMutability": "nonpayable",
      "type": "function"
    },
    {
      "inputs": [],
      "name": "name",
      "outputs": [
        {
          "internalType": "string",
          "name": "",
          "type": "string"
        }
      ],
      "stateMutability": "view",
      "type": "function"
    },
    {
      "inputs": [],
      "name": "owner",
      "outputs": [
        {
          "internalType": "address",
          "name": "",
          "type": "address"
        }
      ],
      "stateMutability": "view",
      "type": "function"
    },
    {
      "inputs": [],
      "name": "postThreshold",
      "outputs": [
        {
          "internalType": "uint256",
          "name": "",
          "type": "uint256"
        }
      ],
      "stateMutability": "view",
      "type": "function"
    },
    {
      "inputs": [],
      "name": "renounceOwnership",
      "outputs": [],
      "stateMutability": "nonpayable",
      "type": "function"
    },
    {
      "inputs": [
        {
          "internalType": "uint256",
          "name": "newThreshold",
          "type": "uint256"
        }
      ],
      "name": "setCommentThreshold",
      "outputs": [],
      "stateMutability": "nonpayable",
      "type": "function"
    },
    {
      "inputs": [
        {
          "internalType": "uint256",
          "name": "newThreshold",
          "type": "uint256"
        }
      ],
      "name": "setPostThreshold",
      "outputs": [],
      "stateMutability": "nonpayable",
      "type": "function"
    },
    {
      "inputs": [],
      "name": "symbol",
      "outputs": [
        {
          "internalType": "string",
          "name": "",
          "type": "string"
        }
      ],
      "stateMutability": "view",
      "type": "function"
    },
    {
      "inputs": [],
      "name": "totalSupply",
      "outputs": [
        {
          "internalType": "uint256",
          "name": "",
          "type": "uint256"
        }
      ],
      "stateMutability": "view",
      "type": "function"
    },
    {
      "inputs": [
        {
          "internalType": "address",
          "name": "to",
          "type": "address"
        },
        {
          "internalType": "uint256",
          "name": "value",
          "type": "uint256"
        }
      ],
      "name": "transfer",
      "outputs": [
        {
          "internalType": "bool",
          "name": "",
          "type": "bool"
        }
      ],
      "stateMutability": "nonpayable",
      "type": "function"
    },
    {
      "inputs": [
        {
          "internalType": "address",
          "name": "from",
          "type": "address"
        },
        {
          "internalType": "address",
          "name": "to",
          "type": "address"
        },
        {
          "internalType": "uint256",
          "name": "value",
          "type": "uint256"
        }
      ],
      "name": "transferFrom",
      "outputs": [
        {
          "internalType": "bool",
          "name": "",
          "type": "bool"
        }
      ],
      "stateMutability": "nonpayable",
      "type": "function"
    },
    {
      "inputs": [
        {
          "internalType": "address",
          "name": "newOwner",
          "type": "address"
        }
      ],
      "name": "transferOwnership",
      "outputs": [],
      "stateMutability": "nonpayable",
      "type": "function"
    }
  ],
  "bytecode": "0x608060405234801561001057600080fd5b50336040518060400160405280600381526020017f57495000000000000000000000000000000000000000000000000000000000008152506040518060400160405280600381526020017f5749500000000000000000000000000000000000000000000000000000000000815250816003908161008d9190610782565b50806004908161009d9190610782565b505050600073ffffffffffffffffffffffffffffffffffffffff168173ffffffffffffffffffffffffffffffffffffffff16036101125760006040517f1e4fbdf70000000000000000000000000000000000000000000000000000000081526004016101099190610895565b60405180910390fd5b610121816101b660201b60201c565b506101593361013461027c60201b60201c565b600a6101409190610a1f565b620f424061014e9190610a6a565b61028560201b60201c565b61016761027c60201b60201c565b600a6101739190610a1f565b606461017f9190610a6a565b60068190555061019361027c60201b60201c565b600a61019f9190610a1f565b60196101ab9190610a6a565b600781905550610b41565b6000600560009054906101000a900473ffffffffffffffffffffffffffffffffffffffff16905081600560006101000a81548173ffffffffffffffffffffffffffffffffffffffff021916908373ffffffffffffffffffffffffffffffffffffffff1602179055508173ffffffffffffffffffffffffffffffffffffffff168173ffffffffffffffffffffffffffffffffffffffff167f8be0079c531659141344cd1fd0a4f28419497f9722a3daafe3b4186f6b6457e060405160405180910390a35050565b60006012905090565b600073ffffffffffffffffffffffffffffffffffffffff168273ffffffffffffffffffffffffffffffffffffffff16036102f75760006040517fec442f050000000000000000000000000000000000000000000000000000000081526004016102ee9190610895565b60405180910390fd5b6103096000838361030d60201b60201c565b5050565b600073ffffffffffffffffffffffffffffffffffffffff168373ffffffffffffffffffffffffffffffffffffffff160361035f5780600260008282546103539190610aac565b92505081905550610432565b60008060008573ffffffffffffffffffffffffffffffffffffffff1673ffffffffffffffffffffffffffffffffffffffff168152602001908152602001600020549050818110156103eb578381836040517fe450d38c0000000000000000000000000000000000000000000000000000000081526004016103e293929190610aef565b60405180910390fd5b8181036000808673ffffffffffffffffffffffffffffffffffffffff1673ffffffffffffffffffffffffffffffffffffffff16815260200190815260200160002081905550505b600073ffffffffffffffffffffffffffffffffffffffff168273ffffffffffffffffffffffffffffffffffffffff160361047b57806002600082825403925050819055506104c8565b806000808473ffffffffffffffffffffffffffffffffffffffff1673ffffffffffffffffffffffffffffffffffffffff168152602001908152602001600020600082825401925050819055505b8173ffffffffffffffffffffffffffffffffffffffff168373ffffffffffffffffffffffffffffffffffffffff167fddf252ad1be2c89b69c2b068fc378daa952ba7f163c4a11628f55a4df523b3ef836040516105259190610b26565b60405180910390a3505050565b600081519050919050565b7f4e487b7100000000000000000000000000000000000000000000000000000000600052604160045260246000fd5b7f4e487b7100000000000000000000000000000000000000000000000000000000600052602260045260246000fd5b600060028204905060018216806105b357607f821691505b6020821081036105c6576105c561056c565b5b50919050565b60008190508160005260206000209050919050565b60006020601f8301049050919050565b600082821b905092915050565b60006008830261062e7fffffffffffffffffffffffffffffffffffffffffffffffffffffffffffffffff826105f1565b61063886836105f1565b95508019841693508086168417925050509392505050565b6000819050919050565b6000819050919050565b600061067f61067a61067584610650565b61065a565b610650565b9050919050565b6000819050919050565b61069983610664565b6106ad6106a582610686565b8484546105fe565b825550505050565b600090565b6106c26106b5565b6106cd818484610690565b505050565b5b818110156106f1576106e66000826106ba565b6001810190506106d3565b5050565b601f82111561073657610707816105cc565b610710846105e1565b8101602085101561071f578190505b61073361072b856105e1565b8301826106d2565b50505b505050565b600082821c905092915050565b60006107596000198460080261073b565b1980831691505092915050565b60006107728383610748565b9150826002028217905092915050565b61078b82610532565b67ffffffffffffffff8111156107a4576107a361053d565b5b6107ae825461059b565b6107b98282856106f5565b600060209050601f8311600181146107ec57600084156107da578287015190505b6107e48582610766565b86555061084c565b601f1984166107fa866105cc565b60005b82811015610822578489015182556001820191506020850194506020810190506107fd565b8683101561083f578489015161083b601f891682610748565b8355505b6001600288020188555050505b505050505050565b600073ffffffffffffffffffffffffffffffffffffffff82169050919050565b600061087f82610854565b9050919050565b61088f81610874565b82525050565b60006020820190506108aa6000830184610886565b92915050565b7f4e487b7100000000000000000000000000000000000000000000000000000000600052601160045260246000fd5b60008160011c9050919050565b6000808291508390505b600185111561093657808604811115610912576109116108b0565b5b60018516156109215780820291505b808102905061092f856108df565b94506108f6565b94509492505050565b60008261094f5760019050610a0b565b8161095d5760009050610a0b565b8160018114610973576002811461097d576109ac565b6001915050610a0b565b60ff84111561098f5761098e6108b0565b5b8360020a9150848211156109a6576109a56108b0565b5b50610a0b565b5060208310610133831016604e8410600b84101617156109e15782820a9050838111156109dc576109db6108b0565b5b610a0b565b6109ee84848460016108ec565b92509050818404811115610a0557610a046108b0565b5b81810290505b9392505050565b600060ff82169050919050565b6000610a2a82610650565b9150610a3583610a12565b9250610a627fffffffffffffffffffffffffffffffffffffffffffffffffffffffffffffffff848461093f565b905092915050565b6000610a7582610650565b9150610a8083610650565b9250828202610a8e81610650565b91508282048414831517610aa557610aa46108b0565b5b5092915050565b6000610ab782610650565b9150610ac283610650565b9250828201905080821115610ada57610ad96108b0565b5b92915050565b610ae981610650565b82525050565b6000606082019050610b046000830186610886565b610b116020830185610ae0565b610b1e6040830184610ae0565b949350505050565b6000602082019050610b3b6000830184610ae0565b92915050565b61154880610b506000396000f3fe608060405234801561001057600080fd5b50600436106101215760003560e01c8063715018a6116100ad578063a9059cbb11610071578063a9059cbb1461030c578063dd62ed3e1461033c578063ed25f27c1461036c578063f2fde38b1461038a578063f8a5845c146103a657610121565b8063715018a61461027a5780638da5cb5b1461028457806395d89b41146102a2578063a48603db146102c0578063a53c5689146102f057610121565b806323b872dd116100f457806323b872dd146101b0578063313ce567146101e057806340c10f19146101fe57806362d3576b1461021a57806370a082311461024a57610121565b806306fdde0314610126578063095ea7b31461014457806318160ddd1461017457806318f2bf9014610192575b600080fd5b61012e6103c2565b60405161013b9190610faf565b60405180910390f35b61015e6004803603810190610159919061106a565b610454565b60405161016b91906110c5565b60405180910390f35b61017c610477565b60405161018991906110ef565b60405180910390f35b61019a610481565b6040516101a791906110ef565b60405180910390f35b6101ca60048036038101906101c5919061110a565b610487565b6040516101d791906110c5565b60405180910390f35b6101e86104b6565b6040516101f59190611179565b60405180910390f35b6102186004803603810190610213919061106a565b6104bf565b005b610234600480360381019061022f9190611194565b6104d5565b60405161024191906110c5565b60405180910390f35b610264600480360381019061025f9190611194565b6104ec565b60405161027191906110ef565b60405180910390f35b610282610534565b005b61028c610548565b60405161029991906111d0565b60405180910390f35b6102aa610572565b6040516102b79190610faf565b60405180910390f35b6102da60048036038101906102d59190611194565b610604565b6040516102e791906110c5565b60405180910390f35b61030a600480360381019061030591906111eb565b61061b565b005b6103266004803603810190610321919061106a565b61064b565b60405161033391906110c5565b60405180910390f35b61035660048036038101906103519190611218565b61066e565b60405161036391906110ef565b60405180910390f35b6103746106f5565b60405161038191906110ef565b60405180910390f35b6103a4600480360381019061039f9190611194565b6106fb565b005b6103c060048036038101906103bb91906111eb565b610781565b005b6060600380546103d190611287565b80601f01602080910402602001604051908101604052809291908181526020018280546103fd90611287565b801561044a5780601f1061041f5761010080835404028352916020019161044a565b820191906000526020600020905b81548152906001019060200180831161042d57829003601f168201915b5050505050905090565b60008061045f6107b1565b905061046c8185856107b9565b600191505092915050565b6000600254905090565b60075481565b6000806104926107b1565b905061049f8582856107cb565b6104aa858585610860565b60019150509392505050565b60006012905090565b6104c7610954565b6104d182826109db565b5050565b60006006546104e3836104ec565b10159050919050565b60008060008373ffffffffffffffffffffffffffffffffffffffff1673ffffffffffffffffffffffffffffffffffffffff168152602001908152602001600020549050919050565b61053c610954565b6105466000610a5d565b565b6000600560009054906101000a900473ffffffffffffffffffffffffffffffffffffffff16905090565b60606004805461058190611287565b80601f01602080910402602001604051908101604052809291908181526020018280546105ad90611287565b80156105fa5780601f106105cf576101008083540402835291602001916105fa565b820191906000526020600020905b8154815290600101906020018083116105dd57829003601f168201915b5050505050905090565b6000600754610612836104ec565b10159050919050565b610623610954565b61062b6104b6565b600a610637919061141a565b816106429190611465565b60078190555050565b6000806106566107b1565b9050610663818585610860565b600191505092915050565b6000600160008473ffffffffffffffffffffffffffffffffffffffff1673ffffffffffffffffffffffffffffffffffffffff16815260200190815260200160002060008373ffffffffffffffffffffffffffffffffffffffff1673ffffffffffffffffffffffffffffffffffffffff16815260200190815260200160002054905092915050565b60065481565b610703610954565b600073ffffffffffffffffffffffffffffffffffffffff168173ffffffffffffffffffffffffffffffffffffffff16036107755760006040517f1e4fbdf700000000000000000000000000000000000000000000000000000000815260040161076c91906111d0565b60405180910390fd5b61077e81610a5d565b50565b610789610954565b6107916104b6565b600a61079d919061141a565b816107a89190611465565b60068190555050565b600033905090565b6107c68383836001610b23565b505050565b60006107d7848461066e565b90507fffffffffffffffffffffffffffffffffffffffffffffffffffffffffffffffff81101561085a578181101561084a578281836040517ffb8f41b2000000000000000000000000000000000000000000000000000000008152600401610841939291906114a7565b60405180910390fd5b61085984848484036000610b23565b5b50505050565b600073ffffffffffffffffffffffffffffffffffffffff168373ffffffffffffffffffffffffffffffffffffffff16036108d25760006040517f96c6fd1e0000000000000000000000000000000000000000000000000000000081526004016108c991906111d0565b60405180910390fd5b600073ffffffffffffffffffffffffffffffffffffffff168273ffffffffffffffffffffffffffffffffffffffff16036109445760006040517fec442f0500000000000000000000000000000000000000000000000000000000815260040161093b91906111d0565b60405180910390fd5b61094f838383610cfa565b505050565b61095c6107b1565b73ffffffffffffffffffffffffffffffffffffffff1661097a610548565b73ffffffffffffffffffffffffffffffffffffffff16146109d95761099d6107b1565b6040517f118cdaa70000000000000000000000000000000000000000000000000000000081526004016109d091906111d0565b60405180910390fd5b565b600073ffffffffffffffffffffffffffffffffffffffff168273ffffffffffffffffffffffffffffffffffffffff1603610a4d5760006040517fec442f05000000000000000000000000000000000000000000000000000000008152600401610a4491906111d0565b60405180910390fd5b610a5960008383610cfa565b5050565b6000600560009054906101000a900473ffffffffffffffffffffffffffffffffffffffff16905081600560006101000a81548173ffffffffffffffffffffffffffffffffffffffff021916908373ffffffffffffffffffffffffffffffffffffffff1602179055508173ffffffffffffffffffffffffffffffffffffffff168173ffffffffffffffffffffffffffffffffffffffff167f8be0079c531659141344cd1fd0a4f28419497f9722a3daafe3b4186f6b6457e060405160405180910390a35050565b600073ffffffffffffffffffffffffffffffffffffffff168473ffffffffffffffffffffffffffffffffffffffff1603610b955760006040517fe602df05000000000000000000000000000000000000000000000000000000008152600401610b8c91906111d0565b60405180910390fd5b600073ffffffffffffffffffffffffffffffffffffffff168373ffffffffffffffffffffffffffffffffffffffff1603610c075760006040517f94280d62000000000000000000000000000000000000000000000000000000008152600401610bfe91906111d0565b60405180910390fd5b81600160008673ffffffffffffffffffffffffffffffffffffffff1673ffffffffffffffffffffffffffffffffffffffff16815260200190815260200160002060008573ffffffffffffffffffffffffffffffffffffffff1673ffffffffffffffffffffffffffffffffffffffff168152602001908152602001600020819055508015610cf4578273ffffffffffffffffffffffffffffffffffffffff168473ffffffffffffffffffffffffffffffffffffffff167f8c5be1e5ebec7d5bd14f71427d1e84f3dd0314c0f7b2291e5b200ac8c7c3b92584604051610ceb91906110ef565b60405180910390a35b50505050565b600073ffffffffffffffffffffffffffffffffffffffff168373ffffffffffffffffffffffffffffffffffffffff1603610d4c578060026000828254610d4091906114de565b92505081905550610e1f565b60008060008573ffffffffffffffffffffffffffffffffffffffff1673ffffffffffffffffffffffffffffffffffffffff16815260200190815260200160002054905081811015610dd8578381836040517fe450d38c000000000000000000000000000000000000000000000000000000008152600401610dcf939291906114a7565b60405180910390fd5b8181036000808673ffffffffffffffffffffffffffffffffffffffff1673ffffffffffffffffffffffffffffffffffffffff16815260200190815260200160002081905550505b600073ffffffffffffffffffffffffffffffffffffffff168273ffffffffffffffffffffffffffffffffffffffff1603610e685780600260008282540392505081905550610eb5565b806000808473ffffffffffffffffffffffffffffffffffffffff1673ffffffffffffffffffffffffffffffffffffffff168152602001908152602001600020600082825401925050819055505b8173ffffffffffffffffffffffffffffffffffffffff168373ffffffffffffffffffffffffffffffffffffffff167fddf252ad1be2c89b69c2b068fc378daa952ba7f163c4a11628f55a4df523b3ef83604051610f1291906110ef565b60405180910390a3505050565b600081519050919050565b600082825260208201905092915050565b60005b83811015610f59578082015181840152602081019050610f3e565b60008484015250505050565b6000601f19601f8301169050919050565b6000610f8182610f1f565b610f8b8185610f2a565b9350610f9b818560208601610f3b565b610fa481610f65565b840191505092915050565b60006020820190508181036000830152610fc98184610f76565b905092915050565b600080fd5b600073ffffffffffffffffffffffffffffffffffffffff82169050919050565b600061100182610fd6565b9050919050565b61101181610ff6565b811461101c57600080fd5b50565b60008135905061102e81611008565b92915050565b6000819050919050565b61104781611034565b811461105257600080fd5b50565b6000813590506110648161103e565b92915050565b6000806040838503121561108157611080610fd1565b5b600061108f8582860161101f565b92505060206110a085828601611055565b9150509250929050565b60008115159050919050565b6110bf816110aa565b82525050565b60006020820190506110da60008301846110b6565b92915050565b6110e981611034565b82525050565b600060208201905061110460008301846110e0565b92915050565b60008060006060848603121561112357611122610fd1565b5b60006111318682870161101f565b93505060206111428682870161101f565b925050604061115386828701611055565b9150509250925092565b600060ff82169050919050565b6111738161115d565b82525050565b600060208201905061118e600083018461116a565b92915050565b6000602082840312156111aa576111a9610fd1565b5b60006111b88482850161101f565b91505092915050565b6111ca81610ff6565b82525050565b60006020820190506111e560008301846111c1565b92915050565b60006020828403121561120157611200610fd1565b5b600061120f84828501611055565b91505092915050565b6000806040838503121561122f5761122e610fd1565b5b600061123d8582860161101f565b925050602061124e8582860161101f565b9150509250929050565b7f4e487b7100000000000000000000000000000000000000000000000000000000600052602260045260246000fd5b6000600282049050600182168061129f57607f821691505b6020821081036112b2576112b1611258565b5b50919050565b7f4e487b7100000000000000000000000000000000000000000000000000000000600052601160045260246000fd5b60008160011c9050919050565b6000808291508390505b600185111561133e5780860481111561131a576113196112b8565b5b60018516156113295780820291505b8081029050611337856112e7565b94506112fe565b94509492505050565b6000826113575760019050611413565b816113655760009050611413565b816001811461137b5760028114611385576113b4565b6001915050611413565b60ff841115611397576113966112b8565b5b8360020a9150848211156113ae576113ad6112b8565b5b50611413565b5060208310610133831016604e8410600b84101617156113e95782820a9050838111156113e4576113e36112b8565b5b611413565b6113f684848460016112f4565b9250905081840481111561140d5761140c6112b8565b5b81810290505b9392505050565b600061142582611034565b91506114308361115d565b925061145d7fffffffffffffffffffffffffffffffffffffffffffffffffffffffffffffffff8484611347565b905092915050565b600061147082611034565b915061147b83611034565b925082820261148981611034565b915082820484148315176114a05761149f6112b8565b5b5092915050565b60006060820190506114bc60008301866111c1565b6114c960208301856110e0565b6114d660408301846110e0565b949350505050565b60006114e982611034565b91506114f483611034565b925082820190508082111561150c5761150b6112b8565b5b9291505056fea26469706673582212205e156608bfcaa6bfdbf64b1497b85b723886741635dc2e9d29a265a3d0e8929064736f6c634300081c0033",
  "linkReferences": {},
  "deployedLinkReferences": {}
}